:020000040800F2
:10000000D81700205502000889230008770300084C
:100010008523000841060008312B0008000000007D
:10002000000000000000000000000000670200085F
:100030005D06000800000000C30200088D230008D0
:100040006F0200086F0200086F0200086F020008CC
:100050006F0200086F0200086F0200086F020008BC
:100060006F0200086F0200086F0200086F020008AC
:100070006F0200086F0200086F0200086F0200089C
:1000800045060008510600086F0200086F020008CC
:100090006F0200086F0200086F0200086F0200087C
:1000A0006F0200083D2400086F0200086F0200087C
:1000B0006F0200086F0200086F0200086F0200085C
:1000C0006F0200086F0200086F0200086F0200084C
:1000D0006F0200086F020008252B00086F0200085D
:1000E0006F0200086F0200086F0200086F0200082C
:1000F0006F0200086F0200086F0200086F0200081C
:100100006F0200086F0200086F0200086F0200080B
:100110006F0200086F0200086F0200086F020008FB
:100120006F0200086F0200086F0200086F020008EB
:100130006F0200086F0200086F0200086F020008DB
:100140006F0200086F0200086F0200086F020008CB
:100150006F0200086F0200086F0200086F020008BB
:100160006F0200086F0200086F0200086F020008AB
:100170006F0200086F0200086F0200080000000014
:100180006F0200086F02000800F002F800F052F859
:1001900014A696E8000CB244B344DA4501D100F04D
:1001A00049F8BAE80F000FA696E83000A5EB040561
:1001B00004EB0607AAEB0704A7F101074FEA1515A0
:1001C0004FEA3414A4F10104AC4201D300F032F838
:1001D00013F0010F18BFFB1A43F0010300F001F800
:1001E000DBE718474C4B00006C4B0000103A24BF73
:1001F00078C878C1FAD8520724BF30C830C144BF8C
:1002000004680C6070470000704700000023002461
:1002100000250026103A28BF78C1FBD8520728BF16
:1002200030C148BF0B6070471FB504F090FC1FBD84
:1002300010B510BD00F094F91146FFF7F5FF00F07E
:10024000C9F900F0B2F903B4FFF7F2FF03BC00F004
:10025000B9F900000948804709480047FEE7FEE772
:10026000FEE7FEE7FEE7FEE7FEE7FEE7FEE7FEE766
:1002700004480549054A064B704700002924000838
:1002800089010008D8110020D8170020D8130020B9
:10029000D8130020EFF3108072B6704780F31088F7
:1002A0007047434A1368012B04D04FF001031360D9
:1002B000404A1060404A116040484FF08051016050
:1002C0007047EFF3108272B63948016851B34FF0AE
:1002D000000101603748016891B1EFF309811EF018
:1002E000100F08BF21ED108B21E9F00F4FF0000433
:1002F0001EF0100F08BF012441F8044D0068016092
:100300002D490968096808C9B1E8F00F002B18BF2A
:10031000B1EC108B81F309884EF0100E002B18BF42
:100320002EF0100E82F310884EF0040E7047224912
:100330000860EFF3148222F0040282F314881D494E
:100340004FF0000008601A494FF0010008601C4897
:100350004FF47F01D0F8002041EA02010160174804
:100360004FF08051016017480068006880F30888EA
:1003700061B662B670471EF0040F0CBFEFF3088041
:10038000EFF3098020E9F00F40F804ED40F804EDA8
:100390001EF0040F0CBF80F3088880F3098800B5B5
:1003A00003F01AF85DF804EB4EF0040E70470000FD
:1003B000C8110020BC0B0020C40B002004ED00E09D
:1003C00020ED00E008ED00E053EA020C00F0698047
:1003D0002DE9F04B4FF00006002B1FBFB3FA83F559
:1003E00003FA05F424FA05F65E4012BF1643B2FA8A
:1003F00082F502FA05F4C5F120051EBF22FA05FCBC
:1004000044EA0C04203556EA044C4FEA144418BF61
:10041000641C4FF000084FF00009904271EB030C90
:1004200039D3002919BFB1FA81F701FA07F6B0FAFA
:1004300080F700FA07F6C7F120071EBF20FA07FC75
:1004400046EA0C062037B6FBF4FCA7EB0507103F85
:1004500007F01F0BCBF120062CFA06F60CFA0BFB6B
:1004600044BFB3460026202FA4BF5E464FF0000BCA
:100470005BEA060C08BF4FF0010B19EB0B0948EBC8
:100480000608ABFB027C06FB02CC0BFB03CCC01BBB
:1004900071EB0C01C1E70B46024641464846BDE8F8
:1004A000F08B13B5084318BF4FF0FF300146AFF390
:1004B0000080BDE81C40704702F0FF0343EA0322BE
:1004C00042EA024200F002B84FF000020429C0F0F4
:1004D000128010F0030C00F01B80CCF1040CBCF176
:1004E000020F18BF00F8012BA8BF20F8022BA1EBC8
:1004F0000C0100F00DB85FEAC17C24BF00F8012BAD
:1005000000F8012B48BF00F8012B70474FF00002A4
:1005100000B5134694469646203922BFA0E80C50F9
:10052000A0E80C50B1F12001BFF4F7AF090728BFD4
:10053000A0E80C5048BF0CC05DF804EB890028BF50
:1005400040F8042B08BF704748BF20F8022B11F079
:10055000804F18BF00F8012B7047704770477047F5
:10056000754600F02BF8AE4605006946534620F06C
:100570000700854618B020B5FFF77AFEBDE8204099
:100580004FF000064FF000074FF000084FF0000B4F
:10059000AC46ACE8C009ACE8C009ACE8C009ACE8BE
:1005A000C00921F007018D46704710B50446AFF32E
:1005B00000802046BDE81040FFF745BE0048704768
:1005C0004000002001491820ABBEFEE726000200D3
:1005D0007047000010B584B0FFF75CFE02F0D2FE59
:1005E00003F092F903F0E6FA03F036FA40F2303203
:1005F0004FF48061C2F2000240F230740A20CDE96B
:100600000021C2F2000444F6884142F6F9424FF05C
:10061000140C0290C0F60001C0F600022046002330
:10062000CDF80CC003F060FB204603F0E7FB03F0BD
:10063000C9FA03F033FB03F0A5FA002004B010BDA3
:10064000FEE7000040F2EC00C2F2000000F066B8E5
:1006500040F24C10C2F2000000F060B87047000099
:1006600072B600BFFEE7000070B5866D044600F06C
:100670000BFB94F83510022928D105462068216C1F
:10068000026822F016020260426922F08002426192
:1006900009B9A16C19B1016821F008010160016874
:1006A00021F00101016000BF20680068C00715D07B
:1006B00000F0EAFA401B0628F6D3202060650320EC
:1006C00084F83500002184F8341070BD8020606506
:1006D0000120002184F8341070BD00BFE06D3F217F
:1006E00001FA00F0B060012084F8350000200021FC
:1006F00084F8341070BD000090F83510022909D13B
:10070000052180F835100068016821F001010160C1
:10071000002070478021416501207047F0B581B00D
:100720000021009140F20801C2F200010B68D0E9FB
:10073000166148F2B51537680822C1F64E358A4071
:100740003A42A3FB05350CD003681C68640708D542
:100750001C6824F004041C60B260426D42F0010287
:10076000426501228A403A4208D003685B691B0651
:1007700004D5B260426D42F00202426504228A4012
:100780003A4208D003681B689B0704D5B260426DEB
:1007900042F00402426510228A403A4219D00168B0
:1007A0000B681B0715D5B2600B680A685B0309D498
:1007B000D20509D40A6822F008020A60016C29B93E
:1007C00007E000BF110341D4016C11B10446884712
:1007D0002046C26D202101FA02F33B4243D001685A
:1007E0000F68FF063FD5B36090F835700B68052F92
:1007F0001CD123F016030B604B6923F080034B617F
:10080000036C0BB9836C1BB10B6823F008030B60FE
:100810003F219140B160012180F83510016D002227
:10082000002980F8342054D158E000BF0A685B03E7
:1008300010D4D20512D40A6822F010020A600121F5
:1008400080F83510002180F8341007E0816C002911
:10085000BCD1BEE7110301D4416C00E0C16B11B102
:10086000044688472046416DC1B3416DC9072ED06B
:10087000052180F835100168AA0A0B6823F00103EE
:100880000B60009B0133934200931AD80B68DB077F
:1008900017D0009B01339342009312D80B68DB07FB
:1008A0000FD0009B0133934200930AD80B68DB07FB
:1008B00007D0009B01339342009302D80B68DB07FB
:1008C000DFD1012180F83510002180F83410C16C8F
:1008D00021B101B0BDE8F040084700BF01B0F0BD54
:1008E0002DE9F041044600F0CFF9ECB105460220B5
:1008F00084F835000020216884F83400086820F06E
:100900000100086021680868C00711D000F0BCF938
:10091000401B0528F6D9032520230320636584F8AE
:100920003550BDE8F08100BF0120BDE8F08100BF77
:10093000086848F23F02CFF21002D4E9013500EA1C
:10094000020C04F10C0898E8C10143EA0C032B43A4
:100950001843D4E9072E304338431043626A40EA13
:100960000E00042A40EA08031CD1206BD4E90A2EA9
:1009700040EA0E00184308604869BEF1000F20F0FD
:10098000030040EA020040F0040C11D0B8F5005F0B
:1009900036D0B8F1000F45D1022A46D0012A3BD00B
:1009A00032B942E00B60486920F0070040EA020CCF
:1009B00001F0F8004AF6AB221038CAF6AA22A0FBD2
:1009C00002231A0944F68043C1F814C0C0F600039C
:1009D0009A5C40F2FF335F284FF03F0021EA0301A9
:1009E00000FA02F088BF0431C4E9161288600023BF
:1009F00001250020636584F83550BDE8F08100BF13
:100A0000032AD5D8012540230120DFE802F0030E98
:100A1000030500BF82E700BFAEF1C070B0FA80F0FE
:100A2000400904E0032A04D3C2D1CEF300600028B9
:100A3000BED0012540230120636584F83550BDE810
:100A4000F081000090F834C0BCF1010F04BF022017
:100A5000704770B54FF0010C80F834C0D0F858E002
:100A600090F835C0BCF1010F38D14FF0020C80F87E
:100A700035C04FF0000CC0F854C0D0F800C08468F6
:100A8000056CC06DDCF80060402C26F48026CCF8A4
:100A90000060CCF804300B4604BF13460A463F21E1
:100AA00001FA00F0CCF80830CCF80C20CEF80800A1
:100AB000DCF8000040F01600CCF800002DB1DCF8A6
:100AC000000040F00800CCF80000DCF8000040F026
:100AD0000100CCF80000002070BD00BF002180F8AC
:100AE0003410022070BD00002DE9F04F83B000F1FA
:100AF000200200F13E4741F60045009207F1FF77E2
:100B0000C4F2020508224FEAB726A84208BF07220E
:100B100000254FF000084FF00009072E38BF4FEABC
:100B2000B72201920AE000BF09F1010908F10208A9
:100B3000B9F1100F05F1040500F0A2800F68012241
:100B400002FA09FE17EA0E0AEED0D1F804C0032219
:100B50000CF003077E1E02FA08F4012E6FEA040B64
:100B600012D88468CE6804EA0B0406FA08F6344307
:100B70008460446824EA0E06CCF3001404FA09F4F5
:100B80002643466004E000BF032F01D103271EE087
:100B9000C6688C6806EA0B0604FA08F42643022F9E
:100BA000C66014D16FF00302009E02EA590756F89E
:100BB00007C005F01C040F220B69A2402CEA0202B8
:100BC000A3401A43F251D1F804C00CF003070268A5
:100BD00007FA08F302EA0B021A431CF4403F0260D2
:100BE000A2D0002243F644030292C4F202031A6820
:100BF00043F6004442F480421A601A68C4F20104C9
:100C000002F480420292029A29F003024FF6084C45
:100C10002244CFF6FF7C52F80C3005F00C070F266B
:100C2000BE40B343019E06FA07F73B4342F80C303F
:100C3000A2684B6842EA0A0743F60C4CDE0258BF32
:100C400022EA0A07A760C4F2010CDCF800209E0229
:100C500042EA0A0758BF22EA0A07CCF80070626825
:100C60009E0342EA0A0758BF22EA0A076760226821
:100C7000DB0342EA0A0758BF22EA0A07276053E764
:100C800003B0BDE8F08F000041F2D010C2F20000C6
:100C90000068704740F2000041F2D011C2F200003B
:100CA000C2F2000100780A68104408607047000032
:100CB00080B543F60040C4F20200016841F40071BF
:100CC0000160016841F480610160016841F4807154
:100CD0000160032000F0B6F80F2000F005F800F0E6
:100CE00057F8002080BD0000B0B586B0002543F65F
:100CF00044010195C4F202010A68044642F001026F
:100D00000A60096801A801F0010101910199694691
:100D100000F05AF900F08CF94DF68361C4F21B31F2
:100D2000A0FB01014FF0FF3000EB914140F2AC100D
:100D30000022C2F20000C4F2010240F2E733C0E92F
:100D40000021C0E902530561856100F097FB08B1FD
:100D500006B0B0BD40F2AC10C2F2000000F0BEFB25
:100D60000028F5D1192000F02FF80F2C0CD81920ED
:100D70002146002200F03AF840F204010020C2F2BD
:100D800000010C6006B0B0BD012006B0B0BD00008F
:100D900082B0002043F640010190C4F202014A688B
:100DA00042F480424A604A6802F480420192019A09
:100DB0000090086840F080500860086800F080509B
:100DC0000090009802B07047002848BF704700F0BC
:100DD0001F01012202FA01F11C2202EAD0004EF2A8
:100DE0000012CEF2000281507047000010B54EF69E
:100DF0000C5CCEF2000CDCF80030C3F3022E8EF057
:100E00000704042C28BF0424BEF103034FF0FF3E67
:100E10000EFA04F438BF0023A14399400EFA03F3FD
:100E20009A43114300F00F0200F160430901043AB4
:100E300003F564436244002848BF02F10C031970B3
:100E400010BD00004EF60C51CEF200010A684FF6BC
:100E5000FF031A4060F30A2242F0806040F0FD7008
:100E600008607047002804BF012070472DE9F04159
:100E700043F60808C4F202080446D8F8F8030D4601
:100E800000F00700814207D988F8F853D8F8F80332
:100E900000F00700A84277D12068810717D54107E5
:100EA00005D5D8F8001041F4E051C8F8001001074A
:100EB00005D5D8F8001041F46041C8F80010D8F802
:100EC0000010A26821F0F0011143C8F80010C0071B
:100ED00040D1D8F8F80300F00700854207D288F81F
:100EE000F853D8F8F80300F00700A8424CD1206866
:100EF000410707D5D8F80010E26821F4E05111430A
:100F0000C8F80010000708D5D8F80000216920F4BF
:100F1000604040EAC100C8F8000000F09DF8D8F831
:100F2000001044F66832C1F30311C0F60002515CB0
:100F300040F2080220FA01F140F20400C2F200007F
:100F40000068C2F200021160FFF7CEFE0020BDE88B
:100F5000F08100BF6068811E022907D258F8081C82
:100F600089015CBF0120BDE8F08111E0012807D1B3
:100F700058F8081C89035CBF0120BDE8F08107E038
:100F800058F8081C890703D40120BDE8F08100BF90
:100F9000D8F8001021F003010843C8F80000FFF75B
:100FA00073FE064641F28837D8F80000616800F009
:100FB0000C00B0EB810F8CD0FFF766FE801BB842AF
:100FC000F2D90320BDE8F0810F22026043F6080247
:100FD000C4F20202136803F003034360136803F0D2
:100FE000F0038360136803F4E053C360D2F800C0D9
:100FF0004FF4E05303EADC030361D2F8F80300F096
:10100000070008607047000040F2080043F608013E
:10101000C2F20000C4F202010068096844F67832A6
:10102000C1F38221C0F60002515CC8407047000045
:1010300040F2080043F60801C2F20000C4F20201C7
:101040000068096844F67832C1F34231C0F6000204
:10105000515CC8407047000010B543F60404C4F268
:1010600002046168C1F3810142F20040C0F2F40061
:10107000DFE801F002040A0210BD00BF47F640009D
:10108000C0F27D1010BD00BF2068216823684902AE
:1010900047F64001C0F27D1100F03F02C3F3881013
:1010A0005CBF42F20041C0F2F401A1FB0001002349
:1010B000FFF78AF921680222C1F3014102EB4101E5
:1010C000B0FBF1F010BD0000002804BF0120704704
:1010D0002DE9F04182B00446007843F60006C007CF
:1010E000C4F202060CD0B06800F00C00042840F0F6
:1010F00081803068800303D56068002800F0688133
:10110000207880071BD5B06810F00C0F09D0B068AC
:1011100000F00C00082840F087807068400200F161
:1011200083803068800703D5E068012840F0508153
:101130003068216920F0F80040EAC1003060207872
:10114000000713D4207840072AD4A569002D00F0A9
:101150003A81B06800F00C00082840F0A580012D0D
:1011600040F00E81012002B0BDE8F08160690028E6
:1011700000F082800020C4F247200121C0F8801EC8
:10118000FFF782FD054600BF706F8007DAD4FFF7D6
:101190007BFD401B0228F7D9032002B0BDE8F08197
:1011A000306C5FEAC0080AD400200190306C40F037
:1011B00080503064306C00F080500190019847F20C
:1011C0000007C4F200073868C00547D4386840F407
:1011D00080703860FFF758FD054600BF3868C005CD
:1011E0003CD4FFF751FD401B0228F7D9032002B081
:1011F000BDE8F081B06800F00C00082803D17068E9
:1012000040023FF576AF61683068B1F5803F07D0A6
:10121000B1F5A02F40F09A8040F480203060306813
:1012200040F4803030609AE0E068002840F200002E
:10123000C4F247205CD001210160FFF725FD05467F
:10124000306880073FF574AFFFF71EFD401B022892
:10125000F6D9032002B0BDE8F08100BFA168306F6D
:10126000012905D0052955D140F004003067306FC1
:1012700040F00100306756E00020C4F24720002112
:10128000C0F8801EFFF700FD054600BF706F8007A5
:101290007FF558AFFFF7F8FC401B0228F6D9032072
:1012A00002B0BDE8F08100BF0027C4F2472700204C
:1012B0003866FFF7E9FC022D05460DD13068800144
:1012C00040F18A80FFF7E0FC401B02284FF003004A
:1012D000F4D902B0BDE8F0813068800173D5FFF722
:1012E000D3FC401B02284FF00300F5D9F1E700BF03
:1012F00000210160FFF7C8FC054600BF3068800789
:101300007FF51DAFFFF7C0FC401B02284FF0030024
:10131000F4D9DEE720F001003067306F002920F0BB
:10132000040030677AD0FFF7AFFC054641F28837FA
:10133000306F800700F18480FFF7A6FC401BB842A5
:10134000F6D9032002B0BDE8F08100BF20F4803060
:1013500030603068002920F4802030607AD0FFF7B8
:1013600093FC0546306880033FF5CAAEFFF78CFC5E
:10137000401B6428F6D9032002B0BDE8F08100BF0D
:101380007068E16900F480028A4221D1216A00F08C
:101390003F028A421CD147F6C071626A0140B1EB3C
:1013A000821F15D1A16A4FF6FF73C903994300F458
:1013B0004032A1F580318A420AD1E16A00F07060C2
:1013C000B0EB016F04D1002002B0BDE8F08100BF96
:1013D000012002B0BDE8F08104F11C052FCD0843C7
:1013E00040EA8210D9034FF6FF729143A1F5803194
:1013F00040EA05600843706001203866FFF744FC4E
:10140000044600BF30688001DDD4FFF73DFC001BBF
:1014100002284FF00300F5D95BE700BFFFF734FC6B
:10142000054641F2883700BF306F800708D5FFF7C7
:101430002BFC401BB8424FF00300F5D949E700BF31
:10144000B8F1000F3FF581AE306C20F08050306471
:101450007BE600BFFFF718FC054600BF306880033D
:101460007FF54EAEFFF710FC401B64284FF00300E1
:10147000F4D92EE77047000070470000002804BF31
:101480000120704710B5044690F83D0028B90020AF
:1014900084F83C00204600F01FF8022084F83D004C
:1014A0002068211D00F0D0FF012084F8460084F858
:1014B0003E0084F83F0084F8400084F8410084F83E
:1014C000420084F8430084F8440084F8450084F81E
:1014D0003D00002010BD00007047000090F83D1056
:1014E00001291CBF01207047022180F83D100068CF
:1014F00041F2FF72C168C4F20002904241F0010162
:10150000C1600DDC40F2FF71C4F20001884215DCBD
:10151000B0F1804F2AD040F20041C4F2000123E034
:1015200040F2FF31C4F20101884213DC41F60001B0
:10153000C4F20001884219D0002113E040F60001F6
:10154000C4F20001884211D040F60041C4F200010B
:101550000AE000BF44F20001C4F20101884205D054
:1015600040F20041C4F20101884206D1816801F0D5
:101570000701062904BF00207047016841F00101FE
:1015800001600020704700007047000070B50446FD
:101590000068C5680669B10716D515F0020113D0B9
:1015A0006FF002010161012121778069800703D07A
:1015B0002046FFF7E9FF05E0204600F08FF82046BF
:1015C00000F08EF800202077700719D515F0040080
:1015D00016D020686FF00401016102212177806933
:1015E00010F4407F04D02046FFF7CEFF06E000BF96
:1015F000204600F073F8204600F072F800202077B3
:10160000300717D515F0080014D020686FF00801D6
:10161000016104212177C069800703D02046FFF7CC
:10162000B3FF05E0204600F059F8204600F058F8D6
:1016300000202077F00619D515F0100016D020688C
:101640006FF01001016108212177C06910F4407F1B
:1016500004D02046FFF798FF06E000BF204600F0C8
:101660003DF8204600F03CF800202077F00718BF36
:1016700015F0010002D1300609D412E020686FF0A5
:1016800001010161204600F02DF8300609D515F062
:10169000800006D020686FF0800101612046FFF7CE
:1016A000E9FE700609D515F0400006D020686FF0FD
:1016B00040010161204600F01FF8B00658BF70BD20
:1016C00015F0200008D021686FF0200220460A6142
:1016D000BDE87040FFF7D0BE70BD0000704700004D
:1016E0007047000000680021C4F20101884218BF61
:1016F0007047FFF7CFBA00007047000070B582B0A6
:1017000090F84250202D0BD113460A460146002A7C
:101710004FF0010018BF002B06D102B070BD00BF12
:10172000022002B070BD00BF0863002622204E6375
:101730008A628B854E6481F842000C680D46C86B46
:1017400042F20D7C42F66D01C0F6000CC0F60001BD
:10175000C0E90FC142F29151C0F60001C0E9131671
:10176000211DFFF76FF9E8B3102068642020294697
:1017700085F8420001200A6B012A40F0B380002264
:1017800000920A681368009352680092009A00BFA2
:101790000A6852E8032F0B6842F0100243E8032660
:1017A000002EBAD00A6852E8032F0B6842F01002EC
:1017B00043E80326002EB0D00A6852E8032F0B68D6
:1017C00042F0100243E80326002EA6D00A6852E831
:1017D000032F0B6842F0100243E80326002ED7D1F6
:1017E0009BE700BF0196286829460268019240687D
:1017F00001900198286928B3086850E8030F0A6827
:1018000040F4807042E80303E3B1086850E8030F36
:101810000A6840F4807042E803039BB1086850E80E
:10182000030F0A6840F4807042E8030353B108686C
:1018300050E8030F0A6840F4807042E80303002B6D
:10184000DAD100BF086850E8050F0A6840F00100CF
:1018500042E80503BBB3086850E8050F0A6840F08A
:10186000010042E8050373B3086850E8050F0A68F1
:1018700040F0010042E805032BB3086850E8050F6B
:101880000A6840F0010042E80503002BDAD11AE0B3
:10189000086850E8050F0A6840F0400042E8050378
:1018A000DBB1086850E8050F0A6840F0400042E8E4
:1018B000050393B1086850E8050F0A6840F040003E
:1018C00042E805034BB1086850E8050F0A6840F08C
:1018D000400042E80503002BDAD100200A6B012A00
:1018E0003FF44DAF012002B070BD000039B3006875
:1018F00044F20041C4F20001884218BF7047B0B5FD
:1019000040F2A000C2F2000000F1080440F2A8700A
:10191000C2F2000021461A2203F08EF840F2F415BC
:10192000C2F20005284621461E22FFF7E7FEE86BBB
:101930000068016821F008010160BDE8B04070470F
:1019400070470000B0B582B001680A68CC684B6986
:1019500002F02F05202D04F0200505D125B102B09D
:10196000BDE8B04000F0EABF5FEA027C1EBF03F0B2
:10197000010E04F4907313EB0E0341D1036BD506F3
:1019800018D5012B16D114F0100313D000220192A8
:101990000A6801924A680192019A496949064BD442
:1019A000818DC28DC38D002B18BF914240F00682FD
:1019B00002B0B0BD13062DD514F080032AD090F8E4
:1019C0004120212AF4D18268B2F5805F03D10269F7
:1019D000002A00F07982026A531C036212784A607E
:1019E000C28C013A1304C284E2D1C86820F080009E
:1019F000C860C86840F04000C86002B0B0BD00BF19
:101A0000D30718BF14F4807340F0E280530700F14D
:101A1000E580EAE05206CBD514F04002C8D0CA688F
:101A200022F04002CA60202180F8411002B0BDE8D7
:101A3000B04000F03BBC00BFC26B11684B68858DA5
:101A400099B2002900F0B480A94280F0B180C3852A
:101A5000D169B1F5807F00F0A080016851E8031FD3
:101A6000026821F4807142E80313DBB1016851E898
:101A7000031F026821F4807142E8031393B10168E7
:101A800051E8031F026821F4807142E803134BB14F
:101A9000016851E8031F026821F4807142E80313D2
:101AA000002BDAD1016851E8051F026821F001011D
:101AB00042E80513BBB3016851E8051F026821F035
:101AC000010142E8051373B3016851E8051F02687C
:101AD00021F0010142E805132BB3016851E8051F0D
:101AE000026821F0010142E80513002BDAD11AE067
:101AF000016851E8051F026821F0400142E8051322
:101B0000DBB1016851E8051F026821F0400142E89D
:101B1000051393B1016851E8051F026821F04001E7
:101B200042E805134BB1016851E8051F026821F036
:101B3000400142E80513002BDAD1202180F8421041
:101B400000210163016851E8031F026821F01001C0
:101B500042E80313DBB1016851E8031F026821F07A
:101B6000100142E8031393B1016851E8031F0268B2
:101B700021F0100142E803134BB1016851E8031F43
:101B8000026821F0100142E80313002BDAD1C16B87
:101B900004460846FEF768FD204602214163818D18
:101BA000C28D891A89B202B0BDE8B040FFF79EBE6F
:101BB0008D427FF4FDAED269B2F5807F7FF4F8AE3E
:101BC0000222426302B0BDE8B040FFF78FBE00BF03
:101BD000436C43F001034364530706D5BEF1000F85
:101BE00003D0436C43F002034364930706D5BEF170
:101BF000000F03D0436C43F004034364BCF1000FB7
:101C000006D55EEA050303D0436C43F00803436442
:101C1000436C002B3FF4CCAE920605D525B10446AB
:101C200000F08CFE216820464969426C01F04001B9
:101C300002F00802891800F0B98000BF016851E87D
:101C4000031F026821F4907142E80313BBB30168DB
:101C500051E8031F026821F4907142E8031373B343
:101C6000016851E8031F026821F4907142E80313F0
:101C70002BB3016851E8031F026821F4907142E818
:101C80000313002BDAD11AE0016851E8051F02683E
:101C900021F0010142E80513DBB1016851E8051F9D
:101CA000026821F0010142E8051393B1016851E88F
:101CB000051F026821F0010142E805134BB10168DC
:101CC00051E8051F026821F0010142E80513002BCD
:101CD000DAD1016B012924D1016851E8031F0268A0
:101CE00021F0100142E80313DBB1016851E8031F42
:101CF000026821F0100142E8031393B1016851E832
:101D0000031F026821F0100142E803134BB1016880
:101D100051E8031F026821F0100142E80313002B71
:101D2000DAD1202180F8421000210163016849695D
:101D3000490640F1C380016851E8051F026821F09F
:101D4000400142E80513DBB1016851E8051F026854
:101D500021F0400142E8051393B1016851E8051FE5
:101D6000026821F0400142E805134BB1016851E8D7
:101D7000051F026821F0400142E80513002BDAD16B
:101D8000C16B002900F09A8042F28552C0F6000231
:101D9000044608460A65FEF7AFFC00283FF408AE8B
:101DA000E06B016D02B0BDE8B04008470446FFF7A4
:101DB000C7FD0020606402B0B0BD00BF891A00BF3B
:101DC000026852E8032F036822F4907243E8032567
:101DD000BDB3026852E8032F036822F4907243E80F
:101DE000032575B3026852E8032F036822F490724A
:101DF00043E803252DB3026852E8032F036822F459
:101E0000907243E80325002DDAD11AE0026852E807
:101E1000052F036822F0010243E80525DDB10268C1
:101E200052E8052F036822F0010243E8052595B129
:101E3000026852E8052F036822F0010243E80525F5
:101E40004DB1026852E8052F036822F0010243E811
:101E50000525002DDAD1202280F8422000220263DD
:101E6000026852E8032F036822F0100243E80325BA
:101E7000DDB1026852E8032F036822F0100243E844
:101E8000032595B1026852E8032F036822F010027F
:101E900043E803254DB1026852E8032F036822F09E
:101EA000100243E80325002DDAD1022289B24263F1
:101EB00002B0BDE8B040FFF719BD00BF02B0BDE8F9
:101EC000B040FFF73DBD00BF026A32F8023B6FF33E
:101ED0005F234B60026283E5002804BF0120704746
:101EE00010B5044690F8410028B9002084F840005D
:101EF000204600F021F8242084F841002068C168C1
:101F000021F40051C160204600F098FD206801696D
:101F100021F490410161416921F02A014161C168C8
:101F200041F40051C16000202021606484F8411018
:101F300084F84210606310BD2DE9F04387B0044679
:101F400044F200402168C4F2000000268142069657
:101F5000CDE904660396029602D007B0BDE8F0838F
:101F600043F630010196C4F202010A6946F288087C
:101F700042F400320A610A6900F5DE3002F40032F0
:101F80000192019A01960A68C4F2020842F0010225
:101F90000A60096801F00101019101990C21029187
:101FA0000221CDE90316032105910721069102A91B
:101FB000FEF79AFD40F24C1508F11800C2F2000538
:101FC0004FF000674021C5E9000705F108004FF414
:101FD000806980E842024FF48030C5E9080628464F
:101FE000C5E90566EE61FEF77BFC002818BFFEF729
:101FF00037FBA563AC6340F2EC05C2F2000500209C
:10200000C5E90200C5E90490C5E90600C5E9080074
:102010002846C5E90087FEF763FC002818BFFEF7D5
:102020001FFB262000210022E563AC63FEF7DEFEE5
:102030002620FEF7C9FE07B0BDE8F0837047000018
:10204000704700002DE9F04381B0044690F841004C
:10205000202809D100294FF0010018BF002A07D11C
:1020600001B0BDE8F08300BF022001B0BDE8F083FD
:102070000020606421201D460E4684F8410017466A
:10208000FEF702FEA784E784A1688146B1F5805F70
:1020900002D1206900285DD037460020E28C2168FB
:1020A000002A5DD06A1C24D0002D4AD0804600BF93
:1020B0000868000608D4FEF7E7FDA0EB0900A84277
:1020C0007AD82168C868F3E717B117F8010B04E064
:1020D00038F8020B00276FF35F204860E08C01386E
:1020E000E084E08C0028E3D13AE000BF0A681206E1
:1020F00009D40A68120606D40A6812065CBF0A6888
:102100005FEA0262F2D51FB117F8012B05E000BFAC
:1021100030F8022B00276FF35F224A60E28C013A0D
:10212000E284E28C002AE4D11AE000BF30F8022BEE
:1021300000276FF35F224A60E28C013AE284E28C6E
:1021400072B10A68120635D5002FEFD017F8012BAF
:10215000F1E700BF00273046E28C2168002AA1D1B8
:10216000086840061ED42DB3681C14D108684006C8
:102170002AD40868400627D40868400624D4086892
:1021800040064FF00000F1D50DE000BF2068C168A7
:102190000068400618D4FEF777FDA0EB0900A842BE
:1021A000F4D909E00020202184F8411001B0BDE8F5
:1021B000F08300BFFEF768FD0320202184F8411062
:1021C00001B0BDE8F08300BF0020202184F8411059
:1021D00001B0BDE8F0830000B0B590F84140202C7C
:1021E0001CBF0220B0BD1346024600294FF001007B
:1021F00018BF002B00D1B0BD4FF0000C21201162A0
:102200009384D384C2F844C082F841001468154610
:10221000906B42F6850E42F63512C0F6000EC0F6FF
:102220000002C0E90FE242F29152C0F60002C0E99A
:10223000132C221DFEF706FC30B11020686420200C
:1022400085F841000120B0BD286829466FF04002A2
:10225000026000BF086850E8050F0A6840F080007F
:1022600042E8050303B3086850E8050F0A6840F028
:10227000800042E80503BBB1086850E8050F0A6812
:1022800040F0800042E8050373B1086850E8050F8C
:102290000A6840F0800042E80503002B4FF0000080
:1022A00008BFB0BDD6E700BF0020B0BD704700003A
:1022B0007047000080B582B00020019043F63000E6
:1022C000C4F202000168002241F4001101600068BC
:1022D000002100F40010019001981020FEF786FD07
:1022E0001020FEF771FD112000210022FEF77EFD77
:1022F000112002B0BDE88040FEF766BD83B000202B
:1023000043F630010290C4F202010A6842F004026E
:102310000A600A6802F004020292029A01900A68B6
:1023200042F080020A600A6802F080020192019A7B
:102330000090086840F001000860086800F00100A3
:102340000090009803B0704780B540F2F41044F25A
:102350000041C2F20000C4F2000100234FF00C0C57
:102360004FF4E13280E80E00C0E90333C0E905C351
:10237000C361FFF7B1FD002808BF80BDBDE8804004
:10238000FEF76EB9FEE70000FEE7000080B501F041
:1023900017F901F0AFFDBDE8804001F01FB9000062
:1023A00043F60400C4F20200426842F20041C0F267
:1023B000F401C2F3810280B5DFE802F024020824B0
:1023C00047F64001C0F27D111CE000BFD0F800C00C
:1023D0000368026803F03F03C2F3881E5FEA4C22E1
:1023E00047F64002C0F27D1258BF0A46B2FBF3F135
:1023F00002680223C2F301420EFB01F103EB420229
:10240000B1FBF2F140F20802C2F200021160406832
:1024100044F66833C0F30310C0F60003185C21FAD9
:1024200000F0106080BD00004EF68850CEF2000033
:10243000016841F4700101607047000040F2AC1087
:10244000C2F20000FFF7A2B8B0B540F6FF3E056843
:10245000C4F2000E40F2004C7045C4F2010C25DCC1
:10246000B0F1804F2FD040F20043C4F200039842F5
:1024700029D040F60003C4F20003984223D041F66D
:10248000FF73C4F20003984228DC70453ADCB0F1D7
:10249000804F5BD040F20043C4F20003984255D015
:1024A00040F60003C4F200034EE000BF40F60043D4
:1024B000C4F20003984206D0604504D00023C4F261
:1024C00001039842DBD14B6825F0700243EA020514
:1024D00041F6FF73C4F200039842D6DD43F6FF7362
:1024E000C4F2010398421FDC42F20003C4F200036D
:1024F00098422BD00023C4F20103984226D06045B5
:1025000024D028E040F60043C4F2000398421DD0D6
:1025100041F60003C4F20003984217D041F600438D
:10252000C4F2000310E000BF44F20003C4F2010350
:1025300098420BD044F60003C4F20103984205D040
:1025400044F20043C4F20103984204D1CB6825F45D
:10255000407243EA02050A688C684B69C46240F421
:1025600080648262644504BF09690163026825F0E2
:10257000800142F0040219430260012242610160BD
:10258000B0BD0000806B0021C185FFF7D9B9000004
:10259000806B01684A6990F84130212B2DD112F0EF
:1025A00080022AD00021C184016851E8031F02681B
:1025B00021F0C00142E80313DBB1016851E8031FB9
:1025C000026821F0C00142E8031393B1016851E8A9
:1025D000031F026821F0C00142E803134BB10168F8
:1025E00051E8031F026821F0C00142E80313002BE9
:1025F000DAD1202180F841100168496990F8422021
:10260000222A40F07D8011F0400179D00021C1855F
:10261000016851E8031F026821F4907142E8031336
:10262000BBB3016851E8031F026821F4907142E8CE
:10263000031373B3016851E8031F026821F490711A
:1026400042E803132BB3016851E8031F026821F429
:10265000907142E80313002BDAD11AE0016851E8C7
:10266000051F026821F0010142E80513DBB1016892
:1026700051E8051F026821F0010142E8051393B1FA
:10268000016851E8051F026821F0010142E80513C5
:102690004BB1016851E8051F026821F0010142E8D1
:1026A0000513002BDAD1016B012924D1016851E80F
:1026B000031F026821F0100142E80313DBB1016837
:1026C00051E8031F026821F0100142E8031393B19F
:1026D000016851E8031F026821F0100142E803136A
:1026E0004BB1016851E8031F026821F0100142E874
:1026F0000313002BDAD1202180F84210002101635E
:10270000416C41F010014164FFF71AB90168806B18
:102710000968C90500F19F800021C185016851E861
:10272000031F026821F4807142E80313E3B10168DA
:1027300051E8031F026821F4807142E803139BB142
:10274000016851E8031F026821F4807142E8031315
:1027500053B1016851E8031F026821F4807142E817
:102760000313002BDAD100BF016851E8051F02688E
:1027700021F0010142E80513BBB3016851E8051FD0
:10278000026821F0010142E8051373B3016851E8C2
:10279000051F026821F0010142E805132BB301680F
:1027A00051E8051F026821F0010142E80513002BE2
:1027B000DAD11AE0016851E8051F026821F04001F2
:1027C00042E80513DBB1016851E8051F026821F0FA
:1027D000400142E8051393B1016851E8051F026802
:1027E00021F0400142E805134BB1016851E8051F93
:1027F000026821F0400142E80513002BDAD12021C4
:1028000080F84210016B012925D100BF016851E811
:10281000031F026821F0100142E80313DBB10168D5
:1028200051E8031F026821F0100142E8031393B13D
:10283000016851E8031F026821F0100142E8031308
:102840004BB1016851E8031F026821F0100142E812
:102850000313002BDAD100214163016B012918BF5A
:10286000FFF7ECBB818DFFF741B80000806B0121C1
:102870004163016B012918BFFFF7E2BB818D490855
:10288000FFF734B80168806B0968C90548BFFFF7D6
:102890000DBD0021C18400BF016851E8051F026819
:1028A00021F0800142E8051383B3016851E8051F58
:1028B000026821F0800142E805133BB3016851E84A
:1028C000051F026821F0800142E80513F3B1016899
:1028D00051E8051F026821F0800142E80513002B32
:1028E000DAD113E0016851E8031F026841F04001AA
:1028F00042E80313002B08BF7047016851E8031F2B
:10290000026841F0400142E8031393B1016851E8C5
:10291000031F026841F0400142E803134BB1016814
:1029200051E8031F026841F0400142E80313002B05
:10293000D8D17047806BFFF7BBBC000081B090F826
:102940004210222921D183680246B3F5805F09D164
:1029500052F8281F52F8183C002B63D003685B68BC
:102960000AE000BF52F8281F13B90369002BF5D005
:1029700003685B6803F07F030B701168013111601D
:10298000C18D01390A04C18502D001B0704700BF72
:102990000168CA6822F02002CA60CA6822F4807204
:1029A000CA604A6922F001024A61202180F842107F
:1029B00000214163026B012A3CD10163016851E8A7
:1029C000031F026821F0100142E80313DBB1016824
:1029D00051E8031F026821F0100142E8031393B18C
:1029E000016851E8031F026821F0100142E8031357
:1029F0004BB1016851E8031F026821F0100142E861
:102A00000313002BDAD101680A68D20606D500222A
:102A100000920A680092496800910099818D01B086
:102A2000FEF764BF026852686FF35F2221F8022B41
:102A30008162A5E701B0FFF701BB0000B0B5044615
:102A4000006804F108030ECB0569194325F44055CD
:102A50002A4302616269E3691143C268194349F27A
:102A60000C639A431143C1604169A26921F440712A
:102A700041F20043114340F48062C4F201039A42E0
:102A8000416103D1FEF7D4FA02E000BFFEF7BCFAC1
:102A9000E1694FF69C7563681922C0F6FF75B1F5C0
:102AA000004FA0FB02011FD15A00DB0FFDF78CFC89
:102AB00048F21F51C5F2EB11A0FB01235A0905F1A1
:102AC000805302FB0300322303EBC000A0FB010193
:102AD0004FF4F87000EA111000EB0210C1F342113C
:102AE000084421688860B0BD9A009B0FFDF76CFC1C
:102AF00048F21F51C5F2EB11A0FB01235A0902FB5A
:102B00000500322303EB0010A0FB0101F02000EAD6
:102B1000511000EB0210C1F3431108442168886092
:102B2000B0BD000040F2F410C2F20000FEF70ABF90
:102B3000FEE70000002804BF00207047C1B209B1C1
:102B400001200CE010F47F4102D0090A092006E0C0
:102B500010F47F0107BF010E1920090C112044F663
:102B60008032C0F60002515C0844704710B504463C
:102B700040F2F410C2F2000005A10722FFF72CFB7F
:102B8000207840F2E801C2F20001088010BD00BFC9
:102B90006F6B77777777770040F2A004C2F200047A
:102BA0006425C8264FF4FA70658001F00DF84FF4E3
:102BB000FA70668001F008F801F096F921886060EB
:102BC000481C2080EEE7000096B0FEF771F80AACD2
:102BD00020463021FDF79AFC002543F64000099578
:102BE000CDE90755CDE905550495C4F20200016809
:102BF00041F080510160006800F08050049004981A
:102C000047F200000495C4F20000016841F48041DD
:102C10000160006800F480400490049802200A904B
:102C200001200D9010200E9020461095FEF74CFAD2
:102C300010B172B6FEE700BF0F20CDE9050505A86B
:102C40000021CDE907550995FEF70CF910B172B6D0
:102C5000FEE700BFFFF752FBFFF72CFBFFF774FB0B
:102C600040F648424FF48061C2F2000240F2B424C0
:102C70000320CDE90021C2F2000442F69932142566
:102C800002901BA1C0F6000220460023039501F02C
:102C90002BF840F2A875C2F2000542F66D3144F6F9
:102CA0004512C0F60001C0F60002284601F054FEAD
:102CB00040F2F410C2F20000C16B09680A6822F009
:102CC00008020A6040F2A001C2F2000108311E228F
:102CD000FEF714FD48F68810ADF828000AA928462A
:102CE000022201F041FE00BF204601F087F8FBE719
:102CF0006C65643100000000B0B544F62C5444F615
:102D00002850C0F60004C0F60000A04209D244F6E4
:102D10002855C0F6000500BF55F8040B8047A542B2
:102D2000FAD3BDE8B040FFF74FBF00002DE9F04FE8
:102D300087B0DDE911890FF248565FEA49670FF263
:102D4000545758BF37465FEAC96648BF29F00109A2
:102D50005FEAC9764FF0300E08BF4FF0200E5FEAF1
:102D6000897667D4002601960126029600260096F1
:102D7000002A00F09E804FF0000B0A2B71D149F61B
:102D80009A160DF10C08C1F6991600BF4CF6CD430A
:102D9000CCF6CC43A2FB0334E30803EB8304A2EBA1
:102DA00044043C5D0A2A08F80B40C0F08980A3FB6C
:102DB000064505EB8505A3EB4503FB5C08EB0B0C17
:102DC000642A8CF80130C0F0858048F21F53C5F2A8
:102DD000EB13A2FB03346309A3FB064505EB850453
:102DE000A3EB4403FB5CB2F57A7F8CF8023077D317
:102DF00044F6D353C1F26203A2FB0334A309A3FB3D
:102E0000064541F25974CDF2B714A2FB044A05EB12
:102E10008504A3EB440342F21074FB5CA2424FEA28
:102E20005A320BF1040B8CF80330AFD2DDF844803A
:102E30005AE000BFB2F1FF3F08DD5FEA49762FD4C8
:102E40005FEA09768ED520262BE000BF0126019689
:102E5000002602962D26524200964FF0000B0A2BB8
:102E60008DD003AE02F00F03FD5C130906F80B5082
:102E700028D003F00F03FC5C06EB0B05130A6C7003
:102E800024D003F00F03FC5C130BAC702AD003F0CA
:102E90000F03FB5C120C0BF1040BEB70E2D123E08F
:102EA0002B2600960026029601260196002A7FF422
:102EB00062AF30228DF80C204FF0010B14E000BF00
:102EC000DDF844800BF1010B0EE000BF0BF1020BAB
:102ED0000AE000BFDDF844800BF1020B04E000BF04
:102EE000DDF844800BF1030B109AC345C246C8BFFE
:102EF000DA4619F0110FA2EB0A0C67D005460298CA
:102F000030B98D423CBF00982870ACF1010C0135FE
:102F10005FEAC96034D4BCF10107C0F293801CF0B1
:102F2000030600F099808D4238BF85F800E0012E3D
:102F300005F1010040F09A80ACF102070546BCF1B2
:102F4000040FC0F08D80381D8D4205F1010238BF9D
:102F500085F800E08A4238BF82F800E0AA1C8A4265
:102F600038BF82F800E0EA1C8A42A0F1040038BFB2
:102F700082F800E0032805F10405E5DC4FF0FF3C92
:102F80002846D84562DDAAEB0B026FEA0B0312F06C
:102F900003040AEB03025BD08842AAF101073CBF9D
:102FA00030230370012C00F1010E0AD08E45AAF1E6
:102FB00002073CBF30238EF80030022C00F1020ED5
:102FC0006ED17046032A76D291E000BF0022BCF198
:102FD000000FC8BF0122019B1A40ACEB0207B7F1FA
:102FE000010CFFF68BAF17F003064FD088423CBFB1
:102FF00020220270012E00F1010540F01781A7F197
:10300000020C2846042F43D30CF10402202700BFF2
:10301000884200F1010338BF07708B4238BF1F7030
:10302000831C8B4238BF1F70C31C8B42A2F1040269
:1030300038BF1F70032A00F10400E9DC4FF0FF3CA9
:103040005CE700BF2846BC46D8459CDC86464EE07F
:103050005746032A2FD24AE0BCF1040FBFF473AFE6
:103060004FF0FF3CD8453FF78EAFEFE7884238BFBF
:1030700080F800E0022E05F1020040F0E780ACF19C
:1030800003070546BCF1040FEAD35CE7042FBBD26B
:103090004FF0FF3C029800283FF433AF38E700BF01
:1030A00003308E45AAF103073CBF30238EF8003071
:1030B0008646032A1BD33022864600BF8E450EF17A
:1030C000010038BF8EF80020884238BF02700EF130
:1030D0000200884238BF02700EF103008842A7F157
:1030E000040738BF0270BB450EF1040EE6DBB8F1F1
:1030F000000F44D003AACBF10000023A002704E0FD
:103100000437C319ABF1040B60D00EEB07048C42FB
:1031100003D202EB0B035B782370BBF1020F04F1C7
:1031200001031DDB8B423CBF12F80B501D70C3190D
:10313000023304F102061BD08E4204D202EB0B03D1
:1031400013F8013C3370BBF1040F04F1030515D3F0
:103150008D42D5D202EB0B0313F8023C2B70CFE764
:103160009E46BCF1010F0DDA704607B0BDE8F08F46
:10317000B646BCF1010F05DAF6E700BFAE46BCF17A
:10318000010FF1DB1CF003071AD08E453CBF202055
:103190008EF80000ACF10102012F0EF1010009D000
:1031A0008842ACF102023CBF20230370022F0EF1D3
:1031B000020011D18646BCF1040F19D233E000BFE2
:1031C0006246BCF1040F2ED312E000BFBE44BCF136
:1031D000010FD7DAC8E700BF0EF1030E8842ACF149
:1031E00003023CBF202303707046BCF1040F1AD3C6
:1031F000013A2027704600BF884200F1010338BF22
:1032000007708B4238BF1F70831C8B4238BF1F7002
:10321000C31C8B42A2F1040238BF1F7012F1020FCF
:1032200000F10400E8D307B0BDE8F08F8D423CBF49
:1032300020222A70022E00F1020515D1A7F1030CFD
:103240002846042FFFF424AFDEE600BF0335884292
:1032500038BF80F800E0ACF104072846BCF1040F49
:10326000BFF471AEFCE600BF03308D423CBF2022AC
:103270002A70A7F1040C0546042FBFF4C5AE07E77A
:1032800030313233343536373839616263646566DC
:10329000000000003031323334353637383941429E
:1032A0004344454600000000B0B544F6285444F6B7
:1032B0002450C0F60004C0F60000A04228BFB0BDF4
:1032C000051F00BF55F8040F8047281DA042F9D301
:1032D000B0BD000080B5FCF7DDFF40F2C801C2F2CE
:1032E00000014A8801324A80BDE88040FCF7D6BF21
:1032F000B0B5FCF7CFFF40F2C804C2F20004618809
:1033000001390AB2002A618004DDBDE8B040FCF753
:10331000C5BF00BF00216180FCF7C0FF60680028C6
:1033200008BFB0BDFCF7B6FF61880029EDD10546A6
:10333000A068FFF7FFFB421E41F24800C2F2000006
:1033400050F832106068A1F1140383420CD022704F
:1033500040F6C0326360C2F2000212781C3001F104
:1033600008013AB1FCF79DFF2846BDE8B040FCF7E4
:1033700095BF00BFFCF795FF2846BDE8B040FCF7BD
:103380008DBF000080B5FFF70BF840F20800C2F2D5
:103390000000006844F6D351C1F26201A0FB0101B4
:1033A0004FF0FF3000EB91110020B0EB116F0DD109
:1033B0004EF21002CEF2000251604EF62351CEF2D0
:1033C0000001FF230B70906007201060BDE8804073
:1033D000FFF76ABF7047000010B540F6B831C2F27F
:1033E00000010968044629B104F128008847002833
:1033F00008BF10BD616C44F61350C0F6000000F029
:10340000FBF8A16A44F6D240C0F6000000F0F4F8E0
:10341000E16A44F6DF40C0F6000000F0EDF8216BF1
:1034200044F6EC40C0F6000000F0E6F8616B44F6AC
:10343000F940C0F6000000F0DFF8A16844F606503D
:10344000C0F6000000F0D8F8E16824A000F0D4F83D
:10345000216926A000F0D0F8616928A000F0CCF81E
:10346000A1692AA000F0C8F8E1692CA000F0C4F816
:10347000216A2EA000F0C0F8616A30A000F0BCF80C
:10348000A16B32A000F0B8F8E16B34A000F0B4F802
:10349000216C36A000F0B0F8207840070AD444F63A
:1034A0008D40C0F6000000F0A7F82078C00613D4C5
:1034B0000CE000BF00F060FC014644F6A740C0F6F7
:1034C000000000F099F82078C00605D444F6C44006
:1034D000C0F6000000F090F8FEE700BF7230353A09
:1034E000203078253038780A000000007230363AF3
:1034F000203078253038780A000000007230373AE2
:10350000203078253038780A000000007230383AD0
:10351000203078253038780A000000007230393ABF
:10352000203078253038780A000000007231303AB7
:10353000203078253038780A000000007231313AA6
:10354000203078253038780A000000007231323A95
:10355000203078253038780A00000000206C723A5C
:10356000203078253038780A000000002070633A57
:10357000203078253038780A0000000080B5043209
:1035800022F007024FF0000C4BF6EF6E42F844CDEC
:10359000CDF6AD6EC2E901EEC2E903EEC2E905EE79
:1035A000C2E907EE4FF0807ED0631046C2E9091CE5
:1035B000C2E90BCCC2E90DC3C2F840E080BD0000F7
:1035C00080B5FCF767FE40F6C031C2F200010A7810
:1035D00001320A70BDE88040FCF760BE80B5FCF7A0
:1035E00059FE40F6C031C2F200010A78013A0A7071
:1035F000BDE88040FCF752BE83B010B581B040F604
:10360000C834844603A8C2F200040EC003AB2046AF
:103610007F216246009300F08FFD2046FFF7DAFE1F
:1036200001B0BDE8104003B07047000010B5042A97
:103630001ED310F003031BD1CBB24FF00134102A7C
:1036400003FB04FC16D3A2F11004012303EB1413B3
:1036500013F0030310D0012BC0E900CCC0F808C060
:10366000C0F80CC00CD100F1100322461BE000BFD3
:10367000864656E0864631E00346302C16D22BE0D3
:10368000022BC0E904CCC0F818C0C0F81CC003D19C
:1036900000F12003203A06E000F13003303AC0E99F
:1036A00008CCC0E90ACC9E46302C15D303F1400E5D
:1036B000403AC3E900CCC3E902CCC3E904CCC3E976
:1036C00006CCC3E908CCC3E90ACCC3E90CCCC3E9F6
:1036D0000ECC0F2A7346E9D8042A22D3734600BFC2
:1036E000141F042C4EF804CB1AD3A2F10804042CA6
:1036F000C3F804C00ED3A2F10C04042CC3F808C014
:103700000CD303F1100E103AC3F80CC0032A734611
:10371000E6D806E003F1080E02E000BF03F10C0E4C
:103720002246002A08BF10BD5FFA81FC044670469D
:1037300011466246FCF7C0FE204610BD10B5044697
:1037400000202072FCF7A6FD54F80C1F62684A6046
:103750001160C4E90044BDE81040FCF79FBD0000C3
:10376000F0B581B00E4640F20C01C2F200011546E0
:103770000A780446B2420F460AD00F4617F8100FD7
:10378000B04205D011F8200FB04218BF00210F46FB
:10379000FFF7A0FD043738460068B84208D000683B
:1037A000B84205D00068B84202D00068B842F3D1F0
:1037B000FFF79EFD46F08000207220462946082231
:1037C00000F0FEF8FCF766FD396844F80C1F4C6009
:1037D0003C60676001B0BDE8F040FCF75FBD0000F1
:1037E000007AC0097047000070B5FCF753FD40F245
:1037F000C805C2F20005698821B1BDE87040FCF738
:103800004DBD00BFA96806460846FFF793F901467B
:103810004A1E41F24801C2F2000151F832106B68B1
:10382000A1F1140430469C42E7D040F6C0302A7023
:103830006C60C2F20000027803F11C0001F1080183
:1038400032B1FCF72EFD3046BDE87040FCF726BDD6
:10385000FCF727FD3046BDE87040FCF71FBD0000B7
:1038600010B50446FCF716FD94F8341094F8352092
:1038700001F0F001013184F8341041F24801C2F244
:10388000000101EBC2014A6840F2C80C04F11403C4
:10389000C2F2000C1360A2614B60A26BDCF808302E
:1038A000616143EA0201CCF80810BDE81040FCF762
:1038B000F5BC0000B0B50546FCF7ECFC294651F814
:1038C000142F4B6853601A6091F8212041F248038D
:1038D0000960C2F2000353F8324003EBC202944283
:1038E000496003D0BDE8B040FCF7D8BC40F2C80244
:1038F000C2F20002A96B936823EA01019160BDE85E
:10390000B040FCF7CBBC000080B582B00AA0FFF746
:1039100073FE0CA0FFF770FE0FF24C0C15A00321F4
:1039200001220323CDF800C0FFF766FE19A002B004
:10393000BDE88040FFF760BE0A205C207C202F0A93
:10394000000000002D205254202D20202020205443
:103950006872656164204F7065726174696E67207A
:1039600053797374656D0A004A756C2020352032D6
:1039700030323500202F207C205C20202020202584
:10398000642E25642E2564206275696C642025737D
:103990000A0000002032303036202D2032303139FC
:1039A00020436F707972696768742062792072743D
:1039B0002D746872656164207465616D0A00000091
:1039C000002A08BF7047F0B581B0C2F1000C002397
:1039D0008646CC5CC454FCB10CEB03056C1C16D2BF
:1039E000CE187778C4186770E7B1AF1C0FD0B778DE
:1039F000A770EFB103350AD0F578E570F5B104335F
:103A00000EF1040E1CEB0304A2F10402E1D101B09B
:103A1000BDE8F040704700BF0EF10103511E11D107
:103A2000F5E700BF0EF10203013A511E0AD1EEE79D
:103A30000EF10303023A511E04D1E8E7033A231DB5
:103A4000511EE4D004461846FCF73EFD204601B066
:103A5000BDE8F0407047000010B541F24802C2F2E4
:103A6000000202F11800C2E9060002F1200002F192
:103A7000080302F11001C2E9080002F14000C2E9A6
:103A80000233C2E9041102F1280102F1300302F10C
:103A90003804C2E9100002F16000C2E90A11C2E96B
:103AA0000C33C2E90E4402F1480102F1500302F165
:103AB0005804C2E9180002F18000C2E91211C2E9FB
:103AC0001433C2E9164402F1680102F1700302F1F5
:103AD0007804C2E9200002F1A000C2E91A11C2E98B
:103AE0001C33C2E91E4402F1880102F1900302F185
:103AF0009804C2E9280002F1C00040F2C80EC2E9F1
:103B00002211C2E92433C2E9264402F1A80102F1DC
:103B1000B00302F1B804C2E9300002F1E000C2F2E1
:103B2000000EC2E92A11C2E92C33C2E92E4402F187
:103B3000C80102F1D00302F1D804C2E938001F2005
:103B40004FF0000CC2E93211C2E93433C2E9364405
:103B500002F1E80102F1F00302F1F8048EF800002E
:103B60000EF10C00AEF802C0C2E90022C2E93A111F
:103B7000C2E93C33C2E93E44CEE901CCCEE90300C0
:103B800010BD000010B540F2C804C2F20004A068E5
:103B9000FEF7D0FF41F24801C2F2000101EBC00084
:103BA00050F8080CA0F1140108306160BDE8104025
:103BB000FCF7BDBB40F2DC00C2F20000011DC0E911
:103BC000011170477047000080B500F0DBF800205D
:103BD00080BD0000B0B540F2CC00C2F20000056824
:103BE000FCF758FB04462846FFF764FE042085F8DE
:103BF000340005F1440000F0EFF92846FFF7F0FD2E
:103C0000012801D1286F88B140F2D400C2F200002F
:103C1000016845F8141F4D60056068602046FCF798
:103C20003DFBBDE8B040FFF7DFBD00BF2846FFF712
:103C300085FD2046FCF732FBBDE8B040FFF7D4BD60
:103C400040F2D406C2F200060AE000BF2846FFF7A1
:103C5000C7FD01281ED0FFF74BFB2046FCF71EFBDB
:103C60003068B042FCD0FCF715FB37680446B74219
:103C7000F3D0D7E90001A7F1140541600860C7E956
:103C80000077FFF727FBF96D0029DFD0284688472A
:103C9000DCE700BF2846FFF751FDDCE710B584B034
:103CA00041F248128021C2F2000240F23C241F205F
:103CB000CDE90021C2F2000443F641424FF0200C4E
:103CC000029007A1C0F6000220460023CDF80CC0E8
:103CD00000F00AF8204604B0BDE8104000F08EB8AD
:103CE0007469646C650000002DE9F04782B00DF145
:103CF000280A16460A46DDF834909AE88005012124
:103D00001D460446FFF72CFD04F11400C4E905002C
:103D1000384623214246C4E90865C4E90A78FFF71A
:103D200085FC04F120030FCB1A4443F6D533043A43
:103D3000C0F60003FFF722FC43F65962E06100275A
:103D400004F14400C0F600022146234684F836A060
:103D500084F835A0C4E90E79C4F84090276384F84C
:103D60003470C4E91C770097019700F049F90020EE
:103D700002B0BDE8F087000040F2CC00C2F20000C3
:103D800000687047F0B581B00090FCF783FA40F20C
:103D9000CC01C2F200010C68054694F8341001F021
:103DA0000F01012913D1FCF775FA94F83410064677
:103DB00001F0F000023084F834002046FFF77AFD6D
:103DC00004F1440000F09CF93046FCF767FA04F176
:103DD00044066A4630460021002700F0E5F83046E8
:103DE00000F028F92846FCF759FAFFF7FDFC206B94
:103DF000023008BF2763002001B0F0BDB0B5044613
:103E000090F83600012184F8350001FA00F0A06333
:103E1000022084F83400FCF73DFA2246A16952F8EA
:103E2000143F054604F1440059600B60A261126022
:103E300000F066F92846FCF731FA2046FFF710FD3E
:103E400040F2CC00C2F200000068002818BFFFF763
:103E5000CBFC0020B0BD000080B50346826953F85A
:103E6000141F6FF0010CC0F830C04A60116083610C
:103E70001B60FFF7F5FCBDE88040FFF7B5BC000014
:103E800010B5FCF707FA40F2CC01C2F20001096854
:103E900091F8342002F00F02012A21D10A4652F88B
:103EA00014CF53689C451BD091F835E041F248048B
:103EB000C2F2000404EBCE04CCF804308A61D4F8DA
:103EC00004E0C3F800C0CEF80020C1F818E062603A
:103ED0004C61FCF7E3F9FFF787FC002010BD00BF41
:103EE000FCF7DCF9002010BD41F2CC10C2F200005A
:103EF0000068704780B541F2CC10C2F20000016842
:103F000001310160FFF738FF016C0139016403D012
:103F1000BDE8804000F008B8C16B0164FFF7B0FF56
:103F2000BDE88040AFF300802DE9F041FFF7DCFFF2
:103F30000546FCF7AFF940F2DC06C2F20006314656
:103F400051F8044F80468C4228D04FF6FE77C7F6D2
:103F5000FF7704E0304650F8044F84421ED0606979
:103F6000281AB8421AD894E80E00E0684A60116036
:103F7000C4E900449847FFF7B7FF14F80B1C054647
:103F800001F0030001F0FE01032804F80B1CE1D14D
:103F9000A4F1140000F04EF8DCE700BF4046BDE895
:103FA000F041FCF77BB9000003290FD8DFE801F0EE
:103FB0000210060A1168416200207047417A01F040
:103FC000FD0102E0417A41F0020141720020704798
:103FD000406A10600020704710B50446FCF75AF99B
:103FE0002246A16952F8143F59600B60A261126029
:103FF000FCF754F92046FFF7A1FB002010BD00009C
:104000002DE9F04115460A46DDE906870A211C46DE
:104010000646FFF7A5FB07F0FE007072002006F1D0
:104020001401C6E90511C6E90754C6E90980BDE8CF
:10403000F08100002DE9F0410446FCF72BF92546FC
:1040400055F8141F6A684A60116015F80B1C2D6042
:1040500001F0FE016D6005F80B1CFCF71FF9FFF77E
:1040600043FF296908446861FCF714F940F2DC0C4D
:10407000C2F2000CDCF808304FF6FE7E0CF10402B0
:104080006FF00048C7F6FF7E17689A4220D0796922
:10409000A66A891B01D041451AD33A689F421BD0BA
:1040A0005169891B01D0414516D317689A420FD038
:1040B0007969891B01D041450AD33A689F420BD0E8
:1040C00051698E1BE0D076453E46DDD805E000BF45
:1040D00016463A4601E000BF3E46DCF80010556047
:1040E0000131CCF80010617A626141F00101356064
:1040F000A6616172FCF7D2F80020BDE8F0810000F3
:1041000010B50446407AC00704BF4FF0FF3010BD21
:10411000FCF7C0F854F8141F62684A601160C4E9E3
:104120000044FCF7BBF814F80B0C00F0FE0004F898
:104130000B0C002010BD00002DE9F04F85B09B4610
:10414000144600EB01084FF020090391002948BFF5
:104150004FF0FF38049009E00BF1040BF7B2CDE902
:10416000001C41460297FEF7E1FD01342178252924
:1041700008D0002900F0C883404538BF01700130E5
:104180000134F3E70234002614F8017CA7F1200281
:10419000102A00F26D801021DFE802F00A6A6A0E30
:1041A0006A6A6A6A6A6A6A0C6A126A6A100000BFFE
:1041B000082105E0042103E0202101E0012100BFE6
:1041C00027780E43A7F12002102A00F2598010210F
:1041D000DFE802F00A56560E565656565656560CFC
:1041E00056125656100000BF082105E0042103E0D6
:1041F000202101E0012100BF67780E43A7F12002D2
:10420000102A00F243801021DFE802F00A40400E3D
:10421000404040404040400C40124040100000BF31
:10422000082105E0042103E0202101E0012100BF75
:10423000A7780E43A7F12002102A00F25F80102118
:10424000DFE802F00E5C5C105C5C5C5C5C5C5C1249
:104250005C0A5C5C140000BF0E43043494E700BFAA
:104260000821F9E72021F7E70421F5E70121F3E729
:10427000A21E013CA7F1300109290DD944E000BF7D
:10428000621EA7F13001092906D93DE0224601341A
:10429000A7F13001092937D80234002101EB81014F
:1042A00007EB410114F8017C3039A7F13002092AEB
:1042B00040D801EB810107EB410127783039A7F1A4
:1042C0003002092A38D801EB810107EB41016778F8
:1042D0003039A7F13002092A72D801EB810107EBCE
:1042E0004101A7783039A7F130020A2A04F1040409
:1042F000D4D3023C2E2F21D066E000BF621C0234D2
:10430000A7F130010929C7D92A2F0DD15BF8041B69
:10431000941CB1F1FF3FDCBF494246F010062778FC
:104320002E2F0BD050E000BF27784FF0FF312E2FFB
:1043300004D049E0013C00BF2E2F45D1224612F89F
:10434000017FA7F13003092B2ED8A21C002300BF48
:1043500003EB830307EB43031778303BA7F13005EA
:10436000092D43D803EB830307EB43035778303B16
:10437000A7F13005092D35D803EB830307EB430381
:104380009778303BA7F13005092D2DD803EB830337
:1043900007EB4303D778303BA7F130050A2D02F134
:1043A0000402D5D3013A21E02A2F05D114F8027F67
:1043B0005BF8043B224619E04FF0FF3316E000BFE4
:1043C00001342E2FBAD000BF4FF0FF3C47F004025B
:1043D0006C2A12D0BE460027AEF12505532D13D905
:1043E00074E000BF013201E0023200BF23EAE37C47
:1043F000144647F004026C2AECD114F801EFAEF138
:104400002505532D00F262800A23DFE815F05900DC
:104410005F005F005F005F005F005F005F005F00A4
:104420005F005F005F005F005F005F005F005F0094
:104430005F005F005F005F005F005F005F005F0084
:104440005F005F005F005F005F005F005F005F0074
:104450005F005F005F005F005F005F005F005F0064
:104460005F005F005F005F005F005F005F005F0054
:104470005F005F0073005F005F005F005F005F0030
:104480005F005F005F005F005F00810055005F001C
:104490005F005F005F0055005F005F005F005F002E
:1044A0005F007100B7005F005F009B005F00760057
:1044B0005F005F00750000BF46F002061DE000BF10
:1044C0004045BFF45CAE2521017058E6404503D25B
:1044D0002521017094F800E0BEF1000F00F1010108
:1044E00060D0414538BF81F800E0023001343DE63C
:1044F000082302E046F040061023DBF80020682F76
:104500007FF42AAEB7074CBF12B292B224E600BFC6
:10451000F20645D40229A1F1010349DB13F0030699
:10452000A1F1020700F0D080404538BF80F800902C
:10453000012E00F1010240F0D3803B46032F80F0B2
:10454000F5800FE1DBF800A00027BAF1000F0FF2B1
:10455000DC3208BF924600BF1AF80720002A0AEB97
:1045600007022AD055780DB395782DB3D278043749
:10457000002AF1D10AEB0702013A1EE04A1CB2FA06
:1045800082F24FEA521246EA020308BF08215BF8A2
:10459000042BDFB2CDE9001C41461023E2E500BF49
:1045A0000246E0E0013C08460134DFE5013204E068
:1045B00002461946D7E000BF0232A2EB0A0262456A
:1045C000E646B8BF9646BCF1000FD8BF9646F20645
:1045D0001BD47145A1F1010616DDA1EB0E0212F00C
:1045E000030275D0404538BF80F80090012A00F1E1
:1045F000010740F081808E1E6FEA0E0008440328F8
:1046000080F011812AE100BF3146BEF1010FC0F2F6
:104610002C81BEF1040F03D21EF0030236D14DE00F
:104620004FF6FC72C7F6FF720EEA0206002702E0A0
:104630000437BE4224D0C21942453CBF1AF8075085
:104640001570551C454507D3951C45450BD30332C2
:104650004245EDD20EE000BF0AEB07035B782B70FA
:10466000951C4545F3D20AEB07039B782B70033268
:104670004245DDD20AEB0703DB781370D8E700BFB1
:104680003844BA4407461EF0030217D040453CBFE9
:104690009AF800700770012A00F101070ED0474513
:1046A0003CBF9AF801603E70022A00F1020705D073
:1046B00047453CBF9AF802203A70C71C71450BF180
:1046C000040B00F3D780FFE00246032F2ED249E00F
:1046D00007466FEA0E000844032880F0A480BDE07E
:1046E000424538BF82F80090022E00F1020215D137
:1046F000CB1E032F1AD235E0474538BF87F800900C
:10470000022A00F1020740F08380CE1E6FEA0E00FD
:104710000844032880F08780A0E000BF424538BFEE
:1047200082F80090C21C0B1F032F1BD3181D00BF63
:10473000424502F1010138BF82F80090414538BF7F
:1047400081F80090911C414538BF81F80090D11C40
:104750004145A0F1040038BF81F80090042802F11F
:104760000402E5DC002142453CBFDBF8000010708C
:104770000BF1040B022902F10100FFF6F6AC4E1E0C
:1047800016F00307A1F1020315D0404538BF80F8A9
:104790000090012F02F1020004D13146032BFFF4F7
:1047A000E4AC0BE0404538BF80F80090022F02F1E6
:1047B000030023D11946032BFFF4D7AC023900BF05
:1047C000404500F1010238BF80F80090424538BFF3
:1047D00082F80090821C424538BF82F80090C21CCB
:1047E0004245A1F1040138BF82F8009011F1030F96
:1047F00000F10400E4D3FFF7B8BC00BF404538BF68
:1048000080F800900339101D032BFFF4AEACD5E700
:10481000474538BF87F80090C71C0E1F6FEA0E008F
:10482000084403281AD3701C474507F1010138BF1B
:1048300087F80090414538BF81F80090B91C414588
:1048400038BF81F80090F91C4145A0F1040038BF41
:1048500081F80090864507F10407E5DBAEF1010120
:104860003846BEF1010FBFF6D4AE074671450BF1D5
:10487000040B29DDA1EB0E0010F00302384609D02D
:10488000404538BF80F80090012A00F1010705D1AA
:104890004B1E13E00B46074610E000BF474538BFEC
:1048A00087F80090022A00F1020701D18B1E05E073
:1048B000474538BF87F80090CB1EC71C6FEA0E0033
:1048C00008440328384603D238460134FFF74EBC6B
:1048D000404500F1010138BF80F80090414538BFE4
:1048E00081F80090811C414538BF81F80090C11CBF
:1048F0004145A3F1040338BF81F800909E4500F1C3
:104900000400E5DBFFF731BC0399049B002948BF95
:10491000D94331B101460022404528BFA8F1010129
:104920000A70C01A05B0BDE8F08F00BF284E554C84
:104930004C2900000020704700207047002070477D
:10494000002070470A46014640F2F410C2F200000F
:104950004FF47A73FDF776BB0346C0F808140020C5
:10496000C3F80C24704700002DE9F04782B0884658
:104970005521B2F5804F01915AD8C2F305219146D5
:104980008DF805204A4082F0550202F00C0341EAFE
:104990000311B9F1000FC2F3011C8DF8061036D0D7
:1049A000B9F1040F09F0030E04D20021BEF1000F8B
:1049B0001DD12CE047F6FC7101EA0901C1F1000AA2
:1049C00008F101066FF00303F718FD783C79797957
:1049D0006A4062400433BF7951400AEB030204325B
:1049E00087EA0102F0D1191DBEF1000F0FD018F8AF
:1049F0000130BEF1010F82EA030208D041444B7836
:104A0000BEF1020F82EA03021CBF89784A4002F01D
:104A1000FC016144D0F80C248DF8071001A906466A
:104A2000084604219047D6F80C2440464946904752
:104A300002B0BDE8F08700002DE9F04F81B00C46D0
:104A40000546161D4FF000084FF0010955274FF09D
:104A5000020C4FF0030B4FF0040E00204FF0000A41
:104A60000AE000BF85F8049485F802740AF1010A8F
:104A70001FFA8AF0864267D9205C95F804145528FD
:104A800008BF0029EED00139032925D80FF204020E
:104A9000DFE801F002480C2695F80214A5F800049E
:104AA000484085F8020485F804C4DFE7B5F800142F
:104AB00095F802340A0B42EA001202F03C0203F0BD
:104AC0003C039A4285F8030406D16FF39F3185F8C1
:104AD00004E4A5F80014C9E785F80484C6E700BF1C
:104AE000B5F806144A1CA5F80624685495F8022463
:104AF000B5F80614B5F800345040994285F8020420
:104B0000B4D195F80324C0B25040032885F804843A
:104B1000ACD8D5F80824284690474FF0040E4FF043
:104B2000020CA3E7B5F8001485F804B441EA0021AB
:104B3000A5F8001495F8021400F03F00484085F8ED
:104B40000204A5F8068491E701B0BDE8F08FF1EE0C
:104B5000100A4FF6FF71C0F2C03120EA010040F0A8
:104B60004070E1EE100A70470000000000000000F5
:104B70000102030406070809000000000102030403
:104B8000000001000200010003000100020001001A
:104B90000400010002000100030001000200010006
:104BA00005000100020001000300010002000100F5
:104BB00004000100020001000300010002000100E6
:104BC00006000100020001000300010002000100D4
:104BD00004000100020001000300010002000100C6
:104BE00005000100020001000300010002000100B5
:104BF00004000100020001000300010002000100A6
:104C00000700010002000100030001000200010092
:104C10000400010002000100030001000200010085
:104C20000500010002000100030001000200010074
:104C30000400010002000100030001000200010065
:104C40000600010002000100030001000200010053
:104C50000400010002000100030001000200010045
:104C60000500010002000100030001000200010034
:104C70000400010002000100030001000200010025
:104C800000061016000610166D61696E00686172EC
:104C900064206661756C74206F6E2068616E646C50
:104CA00065720D0A0D0A0068617264206661756C98
:104CB00074206F6E207468726561643A2025730DEC
:104CC0000A0D0A0046505520616374697665210D0E
:104CD0000A007230303A203078253038780A007275
:104CE00030313A203078253038780A007230323A44
:104CF000203078253038780A007230333A20307806
:104D0000253038780A007230343A2030782530382F
:104D1000780A007073723A203078253038780A00AB
:104D20004149000839490008354900083D49000853
:104D3000504D00080000002040000000EC01000879
:104D4000904D000840000020981700000C02000859
:104D500001000000100000000024F4000100000029
:104D60001000002010000020780000000200000069
:104D70002000002020000020200000000A00000089
:104D800030000020300000202C0000000000000057
:040000050800018965
:00000001FF
